:100000000C942A000C9447000C9447000C94470071
:100010000C9447000C9447000C9447000C94470044
:100020000C9447000C9447000C9447000C94470034
:100030000C9447000C9447000C9447000C94470024
:100040000C9447000C9447000C9447000C94AF1399
:100050000C94470011241FBECFE5D4E0DEBFCDBF16
:1000600011E0A8E6B1E001C01D92A437B107E1F7A5
:1000700011E0A0E6B0E0E4EDFBE202C005900D92D5
:10008000A836B107D9F70E9408140C94E8150C940F
:100090000000EF92FF920F931F937B018C0120E0F1
:1000A00030E040E05FE40E94F50388238CF0C80153
:1000B000B70120E030E040E05FE40E94C1010E940F
:1000C000B3049B01AC01205030404040504806C072
:1000D000C801B7010E94B3049B01AC01B901CA0178
:1000E0001F910F91FF90EF900895A0E0B0E0EBE733
:1000F000F0E00C94B115DC012B01FA019C919230D7
:1001000008F439C1EB018881823008F433C194309E
:1001100069F4843009F02FC111969C91119789815F
:10012000981709F428C1A0E6B0E025C1843009F48D
:1001300021C18230A9F4923009F01DC19A01AD01AC
:1001400088E0EA010990AE01E90109929E0181501F
:10015000C1F7E201898111969C918923818308C1AD
:10016000923009F407C112962D903C901397EB0141
:100170008A819B811496AD90BD90CD90DC901797AD
:10018000EC80FD800E811F819101281B390BB90184
:1001900037FF04C066277727621B730B6032710537
:1001A0000CF061C0121613066CF537014801062EDB
:1001B00004C096948794779467940A94D2F721E0C8
:1001C00030E040E050E004C0220F331F441F551FB1
:1001D0006A95D2F721503040404050402E213F21B7
:1001E00040235123211531054105510521F021E01E
:1001F00030E040E050E079018A01E628F72808293C
:1002000019293CC0232BD1F1260E371E350146019A
:10021000062E04C096948794779467940A94D2F734
:1002200021E030E040E050E004C0220F331F441FC3
:10023000551F6A95D2F721503040404050402A2146
:100240003B214C215D21211531054105510521F04E
:1002500021E030E040E050E059016A01A628B728CB
:10026000C828D9280BC0821593052CF01C01AA249C
:10027000BB24650103C0EE24FF24870111969C91E5
:10028000D20111968C91981709F445C0992339F041
:10029000A80197012A193B094C095D0906C0A6016E
:1002A00095012E193F09400B510B57FD08C01182D3
:1002B0003382228224833583468357831DC081E0A5
:1002C00081833382228288279927DC01821B930B4A
:1002D000A40BB50B84839583A683B7830DC0220F2F
:1002E000331F441F551F24833583468357838281E0
:1002F000938101979383828324813581468157813D
:10030000DA01C9010197A109B1098F5F9F4FAF4F72
:10031000BF4328F30BC0918333822282EA0CFB1C7B
:100320000C1D1D1DE482F5820683178383E0808304
:10033000248135814681578157FF1AC0C901AA27F8
:1003400097FDA095BA2F81709070A070B0705695EF
:10035000479537952795822B932BA42BB52B848318
:100360009583A683B7838281938101969383828349
:10037000DF0101C0D201CD01CDB7DEB7E2E10C94BF
:10038000CD15A0E2B0E0E7ECF1E00C94BD15698377
:100390007A838B839C832D833E834F835887E9E048
:1003A000EE2EF12CEC0EFD1ECE010196B7010E943F
:1003B000A4068E010F5E1F4FCE010596B8010E9464
:1003C000A4068A8991E089278A8BC701B801AE010A
:1003D000475E5F4F0E9475000E94CF05A096E6E041
:1003E0000C94D915A0E2B0E0E8EFF1E00C94BD1553
:1003F00069837A838B839C832D833E834F835887C5
:10040000F9E0EF2EF12CEC0EFD1ECE010196B701A6
:100410000E94A4068E010F5E1F4FCE010596B80103
:100420000E94A406C701B801AE01475E5F4F0E945B
:1004300075000E94CF05A096E6E00C94D915A0E2C5
:10044000B0E0E5E2F2E00C94B11569837A838B8326
:100450009C832D833E834F835887CE010196BE0136
:10046000675F7F4F0E94A406CE010596BE016F5EB6
:100470007F4F0E94A4069985923088F08989823046
:10048000C8F0943019F4823051F404C0843029F457
:10049000923081F480E690E0C6C0923049F420E0CA
:1004A0009A858A89981321E02A87CE010996BBC0D4
:1004B000823049F420E09A858A89981321E02A8BBA
:1004C000CE014196B0C02D843E844F8458886D88FB
:1004D0007E888F88988CEE24FF248701AA24BB2471
:1004E000650140E050E060E070E0E0E0F0E0C10174
:1004F00081709070892BE9F0E60CF71C081D191D1E
:100500009A01AB012A0D3B1D4C1D5D1D80E090E062
:10051000A0E0B0E0E614F7040805190520F481E036
:1005200090E0A0E0B0E0BA01A901480F591F6A1F8E
:100530007B1FAA0CBB1CCC1CDD1C97FE08C081E0F5
:1005400090E0A0E0B0E0A82AB92ACA2ADB2A3196B6
:10055000E032F10549F0660C771C881C991C569412
:10056000479437942794C3CFFA85EA892B893C892D
:100570008B859C85280F391F2E5F3F4F17C0CA01FE
:1005800081709070892B61F016950795F794E79428
:1005900080E090E0A0E0B0E8E82AF92A0A2B1B2BC3
:1005A00076956795579547952F5F3F4F77FDE7CF36
:1005B0000CC0440F551F661F771F17FD4160EE0CDE
:1005C000FF1C001F111F21503040403090E05907A0
:1005D00090E0690790E4790760F32B8F3C8FDB0193
:1005E000CA018F779070A070B07080349105A1051A
:1005F000B10561F447FD0AC0E114F10401051105DC
:1006000029F0405C5F4F6F4F7F4F40781A8EFE1786
:1006100011F081E08A8F4D8F5E8F6F8F78A383E01A
:10062000898FCE0149960E94CF05A096E2E10C94F5
:10063000CD15A8E1B0E0EFE1F3E00C94B9156983C2
:100640007A838B839C832D833E834F835887B9E0C5
:10065000EB2EF12CEC0EFD1ECE010196B7010E948F
:10066000A4068E010F5E1F4FCE010596B8010E94B1
:10067000A4062985223008F47EC03989323010F46E
:10068000B8017CC08A859A8989278A87243011F02D
:10069000223031F4231709F06EC060E670E06EC0BE
:1006A000343039F41D861E861F86188A1C861B86E8
:1006B00004C0323021F484E08987B7015FC02B8504
:1006C0003C858B899C89281B390B3C872B87ED84C3
:1006D000FE840F851889AD88BE88CF88D88CEA142F
:1006E000FB040C051D0540F4EE0CFF1C001F111F40
:1006F000215030403C872B8720E030E040E050E044
:1007000080E090E0A0E0B0E460E070E0EA14FB0478
:100710000C051D0540F0282B392B4A2B5B2BEA18C2
:10072000FB080C091D09B695A79597958795EE0CC2
:10073000FF1C001F111F6F5F7F4F6F31710531F775
:10074000DA01C9018F779070A070B0708034910584
:10075000A105B10561F427FD0AC0E114F10401050A
:10076000110529F0205C3F4F4F4F5F4F20782D87B8
:100770003E874F87588BBE01675F7F4FCB010E943A
:10078000CF056896EAE00C94D515A8E1B0E0EBEC53
:10079000F3E00C94BD1569837A838B839C832D834E
:1007A0003E834F83588789E0E82EF12CEC0EFD1E26
:1007B000CE010196B7010E94A4068E010F5E1F4F65
:1007C000CE010596B8010E94A4068985823040F0CA
:1007D0008989823028F0C701B8010E941C0701C036
:1007E0008FEF6896E6E00C94D915A8E1B0E0EBEF46
:1007F000F3E00C94BD1569837A838B839C832D83EE
:100800003E834F83588789E0E82EF12CEC0EFD1EC5
:10081000CE010196B7010E94A4068E010F5E1F4F04
:10082000CE010596B8010E94A4068985823040F069
:100830008989823028F0C701B8010E941C0701C0D5
:100840008FEF6896E6E00C94D915A8E1B0E0EBE2F2
:10085000F4E00C94BD1569837A838B839C832D838C
:100860003E834F83588789E0E82EF12CEC0EFD1E65
:10087000CE010196B7010E94A4068E010F5E1F4FA4
:10088000CE010596B8010E94A4068985823040F009
:100890008989823028F0C701B8010E941C0701C075
:1008A00081E06896E6E00C94D915A8E0B0E0EBE5AD
:1008B000F4E00C94BA159B01AC0183E08983DA0162
:1008C000C9018827B7FD83959927AA27BB27B82E8A
:1008D000211531054105510519F482E089833AC09B
:1008E0008823A9F0203080E0380780E0480780E8BE
:1008F000580729F460E070E080E09FEC30C0EE24FF
:10090000FF248701E21AF30A040B150B02C07901D8
:100910008A018EE1C82ED12CDC82CB82ED82FE8250
:100920000F831887C801B7010E9480050197181628
:10093000190684F4082E04C0EE0CFF1C001F111FC2
:100940000A94D2F7ED82FE820F831887C81AD90A5B
:10095000DC82CB82BA82CE0101960E94CF05289616
:10096000E9E00C94D615ACE0B0E0E9EBF4E00C94CF
:10097000C11569837A838B839C83CE010196BE0166
:100980006B5F7F4F0E94A4068D81823061F18230BF
:1009900050F1843021F48E81882351F12EC02F81B3
:1009A000388537FD20C06E812F3131051CF066235C
:1009B000F9F023C08EE190E0821B930B29853A85E4
:1009C0004B855C8504C056954795379527958A9544
:1009D000D2F76623B1F050954095309521953F4F61
:1009E0004F4F5F4F0EC020E030E040E050E009C0C4
:1009F0002FEF3FEF4FEF5FE704C020E030E040E033
:100A000050E8B901CA012C96E2E00C94DD15A8E08B
:100A1000B0E0EDE0F5E00C94B9157B018C016115B7
:100A200071058105910519F482E0898360C083E036
:100A300089838EE1C82ED12CDC82CB82ED82FE82AE
:100A40000F831887C801B7010E948005FC01319708
:100A5000F7FF3BC0222733272E1B3F0B57016801AE
:100A6000022E04C0D694C794B794A7940A94D2F7E0
:100A700040E050E060E070E081E090E0A0E0B0E0B5
:100A800004C0880F991FAA1FBB1F2A95D2F7019790
:100A9000A109B1098E219F21A023B1230097A105AF
:100AA000B10521F041E050E060E070E04A295B29A7
:100AB0006C297D294D835E836F8378878EE190E07A
:100AC0008E1B9F0B9C838B8312C0309781F00E2E60
:100AD00004C0EE0CFF1C001F111F0A94D2F7ED8218
:100AE000FE820F831887CE1ADF0ADC82CB821A823D
:100AF000CE0101960E94CF052896EAE00C94D51508
:100B0000EF92FF920F931F937B018C0180E0E81618
:100B100080E0F80681E0080780E0180788F48FEF8E
:100B2000E816F1040105110531F028F088E090E0A5
:100B3000A0E0B0E017C080E090E0A0E0B0E012C01C
:100B400080E0E81680E0F80680E0080781E01807FA
:100B500028F088E190E0A0E0B0E004C080E190E0FF
:100B6000A0E0B0E020E230E040E050E0281B390B8C
:100B70004A0B5B0B04C016950795F794E7948A958A
:100B8000D2F7F701E859FF4F8081281B310941094D
:100B90005109C9011F910F91FF90EF900895DF92C5
:100BA000EF92FF920F931F93FC01E480F580068182
:100BB0001781D1808081823048F480E090E0A0E10C
:100BC000B0E0E82AF92A0A2B1B2BA5C0843009F4CF
:100BD0009FC0823021F4EE24FF24870105C0E11478
:100BE000F1040105110519F4E0E0F0E096C062811E
:100BF00073819FEF623879070CF05BC022E83FEF0A
:100C0000261B370B2A3131052CF020E030E040E084
:100C100050E02AC0B801A701022E04C0769567955E
:100C2000579547950A94D2F781E090E0A0E0B0E0B4
:100C300004C0880F991FAA1FBB1F2A95D2F70197DE
:100C4000A109B1098E219F21A023B1230097A105FD
:100C5000B10521F081E090E0A0E0B0E09A01AB01A5
:100C6000282B392B4A2B5B2BDA01C9018F77907027
:100C7000A070B07080349105A105B10539F427FF4B
:100C800009C0205C3F4F4F4F5F4F04C0215C3F4F76
:100C90004F4F5F4FE0E0F0E02030A0E03A07A0E0E7
:100CA0004A07A0E45A0710F0E1E0F0E079018A0178
:100CB00027C06038710564F5FB01E158FF4FD8018A
:100CC000C7018F779070A070B07080349105A10536
:100CD000B10539F4E7FE0DC080E490E0A0E0B0E09B
:100CE00004C08FE390E0A0E0B0E0E80EF91E0A1F18
:100CF0001B1F17FF05C016950795F794E7943196CB
:100D000087E016950795F794E7948A95D1F705C083
:100D1000EE24FF248701EFEFF0E06E2F6795662742
:100D20006795902F9F77D794DD24D7948E2F869543
:100D3000492F462B582F5D29B701CA011F910F91EA
:100D4000FF90EF90DF900895FC01DB01408151811D
:100D50002281622F6F7770E0221F2227221F93814A
:100D6000892F880F822B282F30E0991F9927991FF0
:100D700011969C93119721153105A9F5411551053F
:100D80006105710511F482E037C082E89FEF139688
:100D90009C938E9312979A01AB0167E0220F331F49
:100DA000441F551F6A95D1F783E08C930DC0220F25
:100DB000331F441F551F12968D919C9113970197D5
:100DC00013969C938E931297203080E0380780E032
:100DD000480780E4580758F314962D933D934D939C
:100DE0005C93179708952F3F310579F4411551050C
:100DF0006105710519F484E08C93089564FF03C0C4
:100E000081E08C9312C01C9210C02F573040139673
:100E10003C932E93129783E08C9387E0440F551FE9
:100E2000661F771F8A95D1F7706414964D935D9372
:100E30006D937C93179708951F93DC01FB019C91A0
:100E4000923008F447C08081823008F443C0943067
:100E500051F411961C91843099F58181682F70E0CE
:100E6000611B71093FC0843021F0923031F482302F
:100E7000B9F18181882389F12DC011961C911197B8
:100E80008230F1F081811817D9F412962D913C919E
:100E90001397828193818217930794F0281739075B
:100EA000BCF014968D919D910D90BC91A02D248144
:100EB000358146815781281739074A075B0718F49F
:100EC000112341F00AC082179307A407B50740F425
:100ED000112319F061E070E005C06FEF7FEF02C0F1
:100EE00060E070E0CB011F910895DF93CF93CDB701
:100EF000DEB7A5970FB6F894DEBF0FBECDBF8BA3AC
:100F00006CA34DA38BA19AE0692F0E949115892FA4
:100F100089A38BA1882F90E0AA2797FDA095BA2FCF
:100F2000BC01CD010E945504DC01CB01BC01CD0107
:100F300020E030E040E251E40E941903DC01CB01E3
:100F4000BC01CD010E944900DC01CB018AA38CA128
:100F50009AE0692F0E949115892F8F8F8CA1882F7D
:100F600090E0AA2797FDA095BA2FBC01CD010E9461
:100F70005504DC01CB01BC01CD0120E030E040E2B2
:100F800051E40E941903DC01CB01BC01CD010E9498
:100F90004900DC01CB0188A38DA19AE0692F0E9452
:100FA0009115892F8D8F8DA1882F90E0AA2797FD0D
:100FB000A095BA2FBC01CD010E945504DC01CB01E4
:100FC000BC01CD0120E030E040E251E40E94190371
:100FD000DC01CB01BC01CD010E944900DC01CB0149
:100FE0008E8F8AA1805D8AA389A1805D89A388A153
:100FF000805D88A38F8D805D8F8F8E8D805D8E8FBD
:101000008D8D805D8D8F81E061E00E94921280E085
:1010100090E0A0E4B0E4898F9A8FAB8FBC8F698D8C
:101020007A8D8B8D9C8D20E030E04AE753E40E945E
:101030001F02DC01CB018D8B9E8BAF8BB88F6D892E
:101040007E898F89988D20E030E040E85FE30E9440
:10105000250488232CF481E090E09C8B8B8B3FC08F
:101060006D897E898F89988D20E03FEF4FE757E4A7
:101070000E94C50318164CF5698D7A8D8B8D9C8D59
:1010800020E030E040E251E40E941F02DC01CB018D
:10109000BC01CD010E944900DC01CB019C8B8B8BF4
:1010A0000FC089E190E09A8B898B89899A89019791
:1010B000F1F79A8B898B8B899C8901979C8B8B8B01
:1010C0008B899C89009769F714C06D897E898F8907
:1010D000988D0E944900DC01CB019C8B8B8B8B8906
:1010E0009C89988B8F878F8598890197F1F7988BCA
:1010F0008F878AA10E94591189A10E9459118AE300
:101100000E94591188A10E9459118F8D0E94591176
:101110008AE30E9459118E8D0E9459118D8D0E9473
:10112000591180E090E0A0E0B0E48B879C87AD8708
:10113000BE876B857C858D859E8520E030E04AE703
:1011400053E40E941F02DC01CB018F839887A9879B
:10115000BA876F81788589859A8520E030E040E8FC
:101160005FE30E94250488232CF481E090E09E83B5
:101170008D833FC06F81788589859A8520E03FEF18
:101180004FE757E40E94C50318164CF56B857C8524
:101190008D859E8520E030E040E251E40E941F02F0
:1011A000DC01CB01BC01CD010E944900DC01CB0177
:1011B0009E838D830FC089E190E09C838B838B811C
:1011C0009C810197F1F79C838B838D819E81019790
:1011D0009E838D838D819E81009769F714C06F81F6
:1011E000788589859A850E944900DC01CB019E8320
:1011F0008D838D819E819A83898389819A810197CC
:10120000F1F79A838983A5960FB6F894DEBF0FBED7
:10121000CDBFCF91DF910895DF93CF93CDB7DEB7E8
:101220006A970FB6F894DEBF0FBECDBF8F8B688F65
:101230005A8F498F8F899AE0692F0E949115892FC3
:101240008D8B8F89882F90E0AA2797FDA095BA2FC4
:10125000BC01CD010E945504DC01CB01BC01CD01D4
:1012600020E030E040E251E40E941903DC01CB01B0
:10127000BC01CD010E944900DC01CB018E8B888D21
:101280009AE0692F0E949115892F8B8B888D882F6A
:1012900090E0AA2797FDA095BA2FBC01CD010E942E
:1012A0005504DC01CB01BC01CD0120E030E040E27F
:1012B00051E40E941903DC01CB01BC01CD010E9465
:1012C0004900DC01CB018C8B898D9A8DCC01A0E08B
:1012D000B0E0BC01CD010E940705DC01CB01BC01DF
:1012E000CD0120E030E04AE754E40E941903DC011C
:1012F000CB01BC01CD010E944900DC01CB018A8BEE
:10130000898D9A8D28EE33E0B9010E949D15CC019C
:10131000A0E0B0E0BC01CD010E940705DC01CB01DB
:10132000BC01CD0120E030E048EC52E40E941903FA
:10133000DC01CB01BC01CD010E944900DC01CB01E5
:10134000898B898D9A8D24E630E0B9010E949D1524
:101350002AE030E0B9010E949D15CB01888B898D70
:101360009A8D2AE030E0B9010E949D158F878E8901
:10137000805D8E8B8D89805D8D8B8C89805D8C8B63
:101380008B89805D8B8B8A89805D8A8B8989805D62
:10139000898B8889805D888B8F85805D8F8782E0CF
:1013A00061E00E94921280E090E0A0E4B0E48B87BC
:1013B0009C87AD87BE876B857C858D859E8520E06B
:1013C00030E04AE753E40E941F02DC01CB018F8327
:1013D0009887A987BA876F81788589859A8520E063
:1013E00030E040E85FE30E94250488232CF481E08C
:1013F00090E09E838D833FC06F81788589859A8533
:1014000020E03FEF4FE757E40E94C50318164CF564
:101410006B857C858D859E8520E030E040E251E43F
:101420000E941F02DC01CB01BC01CD010E944900DA
:10143000DC01CB019E838D830FC089E190E09C830A
:101440008B838B819C810197F1F79C838B838D81AA
:101450009E8101979E838D838D819E81009769F780
:1014600014C06F81788589859A850E944900DC01C6
:10147000CB019E838D838D819E819A83898389810F
:101480009A810197F1F79A8389838E890E94591175
:101490008D890E9459118FE20E9459118C890E94F6
:1014A00059118B890E9459118FE20E9459118A8922
:1014B0000E94591189890E94591188890E945911E5
:1014C0008F850E9459116A960FB6F894DEBF0FBE41
:1014D000CDBFCF91DF910895DF93CF9300D000D09F
:1014E0000F92CDB7DEB789836A834B838981282F1A
:1014F00030E03D832C838C819D818234910509F4F9
:1015000048C02C813D812334310534F48C819D8188
:101510008134910571F0CBC02C813D81233431059C
:1015200009F467C08C819D818434910509F491C0D0
:10153000BEC08B818130A1F4AAE3B0E0EAE3F0E021
:101540008081482F8A81282F30E081E090E0022EB0
:1015500002C0880F991F0A94E2F7842B8C93A7C0CE
:101560008B81882309F0A3C0AAE3B0E0EAE3F0E0AE
:101570008081482F8A81282F30E081E090E0022E80
:1015800002C0880F991F0A94E2F7809584238C93F8
:101590008EC08B818130A1F4A7E3B0E0E7E3F0E0F7
:1015A0008081482F8A81282F30E081E090E0022E50
:1015B00002C0880F991F0A94E2F7842B8C9377C09E
:1015C0008B81882309F073C0A7E3B0E0E7E3F0E084
:1015D0008081482F8A81282F30E081E090E0022E20
:1015E00002C0880F991F0A94E2F7809584238C9398
:1015F0005EC08B818130A1F4A4E3B0E0E4E3F0E0CD
:101600008081482F8A81282F30E081E090E0022EEF
:1016100002C0880F991F0A94E2F7842B8C9347C06D
:101620008B81882309F043C0A4E3B0E0E4E3F0E059
:101630008081482F8A81282F30E081E090E0022EBF
:1016400002C0880F991F0A94E2F7809584238C9337
:101650002EC08B818130A1F4A1E3B0E0E1E3F0E0A2
:101660008081482F8A81282F30E081E090E0022E8F
:1016700002C0880F991F0A94E2F7842B8C9317C03D
:101680008B818823A1F4A1E3B0E0E1E3F0E0808165
:10169000482F8A81282F30E081E090E0022E02C09E
:1016A000880F991F0A94E2F7809584238C930F90FA
:1016B0000F900F900F900F90CF91DF910895DF93CF
:1016C000CF9300D000D00F92CDB7DEB789836A8365
:1016D0004B838981282F30E03D832C838C819D8131
:1016E0008234910509F448C02C813D8123343105B1
:1016F00034F48C819D818134910571F0CBC02C81B3
:101700003D812334310509F467C08C819D81843487
:10171000910509F491C0BEC08B818130A1F4ABE387
:10172000B0E0EBE3F0E08081482F8A81282F30E0A1
:1017300081E090E0022E02C0880F991F0A94E2F720
:10174000842B8C93A7C08B81882309F0A3C0ABE3C3
:10175000B0E0EBE3F0E08081482F8A81282F30E071
:1017600081E090E0022E02C0880F991F0A94E2F7F0
:10177000809584238C938EC08B818130A1F4A8E363
:10178000B0E0E8E3F0E08081482F8A81282F30E044
:1017900081E090E0022E02C0880F991F0A94E2F7C0
:1017A000842B8C9377C08B81882309F073C0A8E3C6
:1017B000B0E0E8E3F0E08081482F8A81282F30E014
:1017C00081E090E0022E02C0880F991F0A94E2F790
:1017D000809584238C935EC08B818130A1F4A5E336
:1017E000B0E0E5E3F0E08081482F8A81282F30E0E7
:1017F00081E090E0022E02C0880F991F0A94E2F760
:10180000842B8C9347C08B81882309F043C0A5E3C8
:10181000B0E0E5E3F0E08081482F8A81282F30E0B6
:1018200081E090E0022E02C0880F991F0A94E2F72F
:10183000809584238C932EC08B818130A1F4A2E308
:10184000B0E0E2E3F0E08081482F8A81282F30E089
:1018500081E090E0022E02C0880F991F0A94E2F7FF
:10186000842B8C9317C08B818823A1F4A2E3B0E072
:10187000E2E3F0E08081482F8A81282F30E081E088
:1018800090E0022E02C0880F991F0A94E2F780951B
:1018900084238C930F900F900F900F900F90CF9107
:1018A000DF910895DF93CF9300D000D0CDB7DEB79E
:1018B00089836A838981282F30E03C832B838B8145
:1018C0009C8182349105D1F02B813C8123343105F8
:1018D00034F48B819C818134910561F01BC02B8194
:1018E0003C812334310571F08B819C8184349105D6
:1018F00069F010C0EBE3F0E08A818083E8E3F0E078
:101900008A818083E5E3F0E08A818083E2E3F0E08E
:101910008A8180830F900F900F900F90CF91DF916D
:101920000895DF93CF93CDB7DEB727970FB6F8941E
:10193000DEBF0FBECDBF8A836B838A81282F30E044
:101940003E832D834D815E8142345105D9F18D81D5
:101950009E818334910534F42D813E8121343105FB
:1019600071F099C04D815E814334510509F44DC039
:101970008D819E818434910509F46AC08CC0E9E3AD
:10198000F0E0808189838B81282F30E081E090E036
:1019900002C0880F991F2A95E2F7982F8981892321
:1019A00089838981282F30E08B81882F90E0A901DD
:1019B00002C0559547958A95E2F7CA0189835981F6
:1019C0005C836AC0E6E3F0E0808189838B81282F05
:1019D00030E081E090E002C0880F991F2A95E2F77D
:1019E000982F8981892389838981282F30E08B81F1
:1019F000882F90E0A90102C0559547958A95E2F796
:101A0000CA01898359815C8347C0E3E3F0E08081A8
:101A100089838B81282F30E081E090E002C0880F1D
:101A2000991F2A95E2F7982F8981892389838981D3
:101A3000282F30E08B81882F90E0A90102C05595B6
:101A400047958A95E2F7CA01898359815C8324C04E
:101A5000E0E3F0E0808189838B81282F30E081E012
:101A600090E002C0880F991F2A95E2F7982F89818C
:101A7000892389838981282F30E08B81882F90E00A
:101A8000A90102C0559547958A95E2F7CA01898355
:101A900059815C8301C002C08C818F838F8127961E
:101AA0000FB6F894DEBF0FBECDBFCF91DF91089582
:101AB000DF93CF9300D000D00F92CDB7DEB78983EC
:101AC0008981282F30E03C832B838B819C81823459
:101AD0009105D9F02B813C812334310534F48B817D
:101AE0009C818134910561F01FC02B813C8123349E
:101AF000310581F08B819C818434910581F014C083
:101B0000E9E3F0E090819A8310C0E6E3F0E0208101
:101B10002A830BC0E3E3F0E030813A8306C0E0E3C0
:101B2000F0E080818A8301C002C09A819D838D810B
:101B30000F900F900F900F900F90CF91DF9108951D
:101B4000DF93CF93CDB7DEB780916D01863019F466
:101B500010926D0105C080916D018F5F80936D01C2
:101B600080916F019091700120916B01692F422F3C
:101B70000E9475078091690190916C01209171011B
:101B800030917201692FA9010E940C09CF91DF9158
:101B90000895DF93CF930F92CDB7DEB780916D019B
:101BA0008130C1F480916F018C3021F481E0809309
:101BB0006F0105C080916F018F5F80936F018091ED
:101BC0006F019091700120916B01692F422F0E944B
:101BD0007507B5C080916D018230B9F480917001B4
:101BE0008B3319F41092700105C0809170018F5FE2
:101BF0008093700180916F019091700120916B0131
:101C0000692F422F0E9475079AC080916D01833021
:101C1000B9F480916B018B3319F410926B0105C0FC
:101C200080916B018F5F80936B0180916F01909128
:101C3000700120916B01692F422F0E9475077FC0B0
:101C400080916D01843009F043C080916C01813036
:101C5000C1F080916C018330A1F080916C018530DE
:101C600081F080916C01873061F080916C01883047
:101C700041F080916C018A3021F080916C018C30B0
:101C800019F48FE1898309C080916C01823019F4C5
:101C90008CE1898302C08EE18983909169018981F9
:101CA000981721F481E08093690105C08091690152
:101CB0008F5F809369018091690190916C012091FF
:101CC000710130917201692FA9010E940C0937C07E
:101CD00080916D018530D1F480916C018C3021F4BC
:101CE00081E080936C0105C080916C018F5F8093CF
:101CF0006C018091690190916C012091710130918A
:101D00007201692FA9010E940C0919C080916D010F
:101D10008630A9F48091710190917201019690939F
:101D20007201809371018091690190916C01209101
:101D3000710130917201692FA9010E940C090F9065
:101D4000CF91DF910895DF93CF930F92CDB7DEB798
:101D500080916D018130C1F480916F01813021F457
:101D60008CE080936F0105C080916F01815080935A
:101D70006F0180916F019091700120916B01692F2B
:101D8000422F0E947507B6C080916D018230C1F468
:101D900080917001882321F48BE38093700105C04A
:101DA0008091700181508093700180916F019091BA
:101DB000700120916B01692F422F0E9475079AC014
:101DC00080916D018330C1F480916B01882321F4EF
:101DD0008BE380936B0105C080916B0181508093F0
:101DE0006B0180916F019091700120916B01692FBF
:101DF000422F0E9475077EC080916D01843009F0EA
:101E000042C080916C018130C1F080916C018330BF
:101E1000A1F080916C01853081F080916C01873058
:101E200061F080916C01883041F080916C018A30C2
:101E300021F080916C018C3019F48FE1898309C005
:101E400080916C01823019F48CE1898302C08EE1AB
:101E5000898380916901813021F4898180936901AE
:101E600005C0809169018150809369018091690169
:101E700090916C012091710130917201692FA9013B
:101E80000E940C0937C080916D018530D1F480919A
:101E90006C01813021F48CE080936C0105C080914D
:101EA0006C01815080936C018091690190916C016B
:101EB0002091710130917201692FA9010E940C09D2
:101EC00019C080916D018630A9F4809171019091C3
:101ED0007201019790937201809371018091690161
:101EE00090916C012091710130917201692FA901CB
:101EF0000E940C090F90CF91DF910895DF93CF934B
:101F0000CDB7DEB76D970FB6F894DEBF0FBECDBF6D
:101F10008D8F81E46D8D0E94520C82E465E040E07B
:101F20000E945F0B82E466E040E00E945F0B82E467
:101F300067E041E00E945F0B80E090E0A0E8BFE333
:101F4000898F9A8FAB8FBC8F698D7A8D8B8D9C8D8D
:101F500020E030E04AE753E40E941F02DC01CB019D
:101F60008D8B9E8BAF8BB88F6D897E898F89988D75
:101F700020E030E040E85FE30E94250488232CF451
:101F800081E090E09C8B8B8B3FC06D897E898F892F
:101F9000988D20E03FEF4FE757E40E94C5031816E5
:101FA0004CF5698D7A8D8B8D9C8D20E030E040E280
:101FB00051E40E941F02DC01CB01BC01CD010E9453
:101FC0004900DC01CB019C8B8B8B0FC089E190E039
:101FD0009A8B898B89899A890197F1F79A8B898BDA
:101FE0008B899C8901979C8B8B8B8B899C89009713
:101FF00069F714C06D897E898F89988D0E94490088
:10200000DC01CB019C8B8B8B8B899C89988B8F8778
:102010008F8598890197F1F7988B8F8782E467E025
:1020200040E00E945F0B80E090E0A0E4B0E48B878A
:102030009C87AD87BE876B857C858D859E8520E0DE
:1020400030E04AE753E40E941F02DC01CB018F839A
:102050009887A987BA876F81788589859A8520E0D6
:1020600030E040E85FE30E94250488232CF481E0FF
:1020700090E09E838D833FC06F81788589859A85A6
:1020800020E03FEF4FE757E40E94C50318164CF5D8
:102090006B857C858D859E8520E030E040E251E4B3
:1020A0000E941F02DC01CB01BC01CD010E9449004E
:1020B000DC01CB019E838D830FC089E190E09C837E
:1020C0008B838B819C810197F1F79C838B838D811E
:1020D0009E8101979E838D838D819E81009769F7F4
:1020E00014C06F81788589859A850E944900DC013A
:1020F000CB019E838D838D819E819A838983898183
:102100009A810197F1F79A8389836D960FB6F894B7
:10211000DEBF0FBECDBFCF91DF910895DF93CF9388
:10212000CDB7DEB72E970FB6F894DEBF0FBECDBF8A
:1021300081E460E041E00E946C0A81E461E041E0FA
:102140000E946C0A81E462E041E00E946C0A81E432
:1021500063E041E00E946C0A81E464E041E00E9497
:102160006C0A81E465E041E00E946C0A81E466E06B
:1021700041E00E946C0A81E467E041E00E946C0A41
:1021800082E465E041E00E946C0A82E466E041E09E
:102190000E946C0A82E467E041E00E946C0A80E0E1
:1021A00090E0A0EAB1E48B879C87AD87BE876B8502
:1021B0007C858D859E8520E030E04AE753E40E94CF
:1021C0001F02DC01CB018F839887A987BA876F81B3
:1021D000788589859A8520E030E040E85FE30E94B9
:1021E000250488232CF481E090E09E838D833FC0FA
:1021F0006F81788589859A8520E03FEF4FE757E426
:102200000E94C50318164CF56B857C858D859E85CF
:1022100020E030E040E251E40E941F02DC01CB01EB
:10222000BC01CD010E944900DC01CB019E838D835E
:102230000FC089E190E09C838B838B819C81019707
:10224000F1F79C838B838D819E8101979E838D8383
:102250008D819E81009769F714C06F81788589858B
:102260009A850E944900DC01CB019E838D838D817C
:102270009E819A83898389819A810197F1F79A8354
:10228000898388E30E947E0F8CE00E947E0F86E0A7
:102290000E947E0F81E00E947E0F80E80E947E0FE8
:1022A0002E960FB6F894DEBF0FBECDBFCF91DF9153
:1022B0000895DF93CF93CDB7DEB76D970FB6F8943F
:1022C000DEBF0FBECDBF8D8F81E46D8D0E94520C9D
:1022D00082E460E045E00E945F0B82E461E046E05A
:1022E0000E945F0B82E467E041E00E945F0B80E0A8
:1022F00090E0A0E8BFE3898F9A8FAB8FBC8F698D88
:102300007A8D8B8D9C8D20E030E04AE753E40E946B
:102310001F02DC01CB018D8B9E8BAF8BB88F6D893B
:102320007E898F89988D20E030E040E85FE30E944D
:10233000250488232CF481E090E09C8B8B8B3FC09C
:102340006D897E898F89988D20E03FEF4FE757E4B4
:102350000E94C50318164CF5698D7A8D8B8D9C8D66
:1023600020E030E040E251E40E941F02DC01CB019A
:10237000BC01CD010E944900DC01CB019C8B8B8B01
:102380000FC089E190E09A8B898B89899A8901979E
:10239000F1F79A8B898B8B899C8901979C8B8B8B0E
:1023A0008B899C89009769F714C06D897E898F8914
:1023B000988D0E944900DC01CB019C8B8B8B8B8913
:1023C0009C89988B8F878F8598890197F1F7988BD7
:1023D0008F8782E467E040E00E945F0B80E090E03E
:1023E000A0E4B0E48B879C87AD87BE876B857C8536
:1023F0008D859E8520E030E04AE753E40E941F026D
:10240000DC01CB018F839887A987BA876F81788594
:1024100089859A8520E030E040E85FE30E9425044A
:1024200088232CF481E090E09E838D833FC06F81F0
:10243000788589859A8520E03FEF4FE757E40E9431
:10244000C50318164CF56B857C858D859E8520E02F
:1024500030E040E251E40E941F02DC01CB01BC01EC
:10246000CD010E944900DC01CB019E838D830FC00A
:1024700089E190E09C838B838B819C810197F1F7AC
:102480009C838B838D819E8101979E838D838D811B
:102490009E81009769F714C06F81788589859A8538
:1024A0000E944900DC01CB019E838D838D819E813A
:1024B0009A83898389819A810197F1F79A83898325
:1024C0006D960FB6F894DEBF0FBECDBFCF91DF91F2
:1024D0000895DF93CF9300D00F92CDB7DEB79B83E3
:1024E0008A8319820EC08981282F30E08A819B81DE
:1024F000FC01E20FF31F80810E94591189818F5FD7
:1025000089838981282F30E08A819B81FC01E20F39
:10251000F31F8081882339F70F900F900F90CF9190
:10252000DF910895DF93CF9300D0CDB7DEB78983D5
:102530006A838981813019F089818230A1F48A818E
:10254000813188F48981813031F48A818F7080688B
:102550000E947E0F08C08981823029F48A818F70A1
:10256000806C0E947E0F0F900F90CF91DF910895A5
:10257000DF93CF93CDB7DEB710926D018AE08093E1
:102580006F0181E08093700110926B0188E080936D
:10259000690189E080936C0188EE97E09093720165
:1025A00080937101109268018091680180936E019F
:1025B00010926A010E948E100E94D01380916F01C8
:1025C0009091700120916B01692F422F0E94750735
:1025D0008091690190916C0120917101309172019B
:1025E000692FA9010E940C09CF91DF910895DF9313
:1025F000CF930F92CDB7DEB780916D01882309F09C
:10260000AAC080916A01813009F0A5C080916B0158
:102610008F5F80936B0110926A0180916B018C3304
:1026200039F4809170018F5F8093700110926B017B
:10263000809170018C3338F080916F018F5F8093AF
:102640006F011092700180916F018D3018F081E060
:1026500080936F0180916F018C3071F480916801DB
:10266000813019F41092680107C0809168018823B5
:1026700019F481E08093680180916E01882309F04C
:1026800054C080916801813009F04FC08091680189
:1026900080936E0180916C018130C1F080916C015A
:1026A0008330A1F080916C01853081F080916C01C4
:1026B000873061F080916C01883041F080916C012D
:1026C0008A3021F080916C018C3019F48FE189837C
:1026D00009C080916C01823019F48CE1898302C0B9
:1026E0008EE18983909169018981981749F48091DD
:1026F0006C018F5F80936C0181E08093690105C05C
:10270000809169018F5F8093690180916C018C30A9
:1027100061F4809171019091720101969093720120
:102720008093710181E080936C0180916F019091A1
:10273000700120916B01692F422F0E9475078091D3
:10274000690190916C012091710130917201692FA2
:10275000A9010E940C090F90CF91DF9108951F925B
:102760000F920FB60F9211248F93DF93CF93CDB7B3
:10277000DEB780917301853031F481E080936A0186
:102780001092730105C0809173018F5F8093730174
:10279000CF91DF918F910F900FBE0F901F901895E2
:1027A000DF93CF93CDB7DEB7109273017894A9E58C
:1027B000B0E0E9E5F0E0808182608C93A3E5B0E0D1
:1027C000E3E5F0E080818F7B8C93A3E5B0E0E3E567
:1027D000F0E0808188608C93A3E5B0E0E3E5F0E071
:1027E000808181608C93A3E5B0E0E3E5F0E0808137
:1027F0008D7F8C93A3E5B0E0E3E5F0E08081846019
:102800008C93ECE5F0E088EC8083CF91DF91089524
:10281000DF93CF93CDB7DEB7AA970FB6F894DEBF9C
:102820000FBECDBFE7E3F0E01082E8E3F0E087E021
:1028300080830E94B8120E94F71282E460E00E9436
:10284000910C882309F075C00E94A00D80E090E0F3
:10285000AAE7B3E48FA398A7A9A7BAA76FA178A501
:1028600089A59AA520E030E04AE753E40E941F02C0
:10287000DC01CB018BA39CA3ADA3BEA36BA17CA168
:102880008DA19EA120E030E040E85FE30E94250496
:1028900088232CF481E090E09AA389A33FC06BA128
:1028A0007CA18DA19EA120E03FEF4FE757E40E945D
:1028B000C50318164CF56FA178A589A59AA520E047
:1028C00030E040E251E40E941F02DC01CB01BC0178
:1028D000CD010E944900DC01CB019AA389A30FC05E
:1028E00089E190E098A38F8F8F8D98A10197F1F7E0
:1028F00098A38F8F89A19AA101979AA389A389A1EF
:102900009AA1009769F797CF6BA17CA18DA19EA199
:102910000E944900DC01CB019AA389A389A19AA155
:102920009E8F8D8F8D8D9E8D0197F1F79E8F8D8F50
:1029300082CF82E461E00E94910C882309F075C087
:102940000E94C90D80E090E0AAE7B3E4898F9A8FD6
:10295000AB8FBC8F698D7A8D8B8D9C8D20E030E0A4
:102960004AE753E40E941F02DC01CB018D8B9E8B52
:10297000AF8BB88F6D897E898F89988D20E030E08C
:1029800040E85FE30E94250488232CF481E090E076
:102990009C8B8B8B3FC06D897E898F89988D20E0C1
:1029A0003FEF4FE757E40E94C50318164CF5698DB9
:1029B0007A8D8B8D9C8D20E030E040E251E40E94C6
:1029C0001F02DC01CB01BC01CD010E944900DC01EA
:1029D000CB019C8B8B8B0FC089E190E09A8B898B0C
:1029E00089899A890197F1F79A8B898B8B899C89C0
:1029F00001979C8B8B8B8B899C89009769F71BCFE8
:102A00006D897E898F89988D0E944900DC01CB01F8
:102A10009C8B8B8B8B899C89988B8F878F859889D2
:102A20000197F1F7988B8F8706CF82E462E00E94CE
:102A3000910C882309F0FFCE0E94A30E80E090E065
:102A4000AAE7B3E48B879C87AD87BE876B857C85BF
:102A50008D859E8520E030E04AE753E40E941F0206
:102A6000DC01CB018F839887A987BA876F8178852E
:102A700089859A8520E030E040E85FE30E942504E4
:102A800088232CF481E090E09E838D833FC06F818A
:102A9000788589859A8520E03FEF4FE757E40E94CB
:102AA000C50318164CF56B857C858D859E8520E0C9
:102AB00030E040E251E40E941F02DC01CB01BC0186
:102AC000CD010E944900DC01CB019E838D830FC0A4
:102AD00089E190E09C838B838B819C810197F1F746
:102AE0009C838B838D819E8101979E838D838D81B5
:102AF0009E81009769F79FCE6F81788589859A8539
:102B00000E944900DC01CB019E838D838D819E81D3
:102B10009A83898389819A810197F1F79A838983BE
:102B20008ACE991B79E004C0991F961708F0961B6E
:102B3000881F7A95C9F780950895AA1BBB1B51E1A0
:102B400007C0AA1FBB1FA617B70710F0A61BB70B1D
:102B5000881F991F5A95A9F780959095BC01CD01C2
:102B600008952F923F924F925F926F927F928F9231
:102B70009F92AF92BF92CF92DF92EF92FF920F930C
:102B80001F93CF93DF93CDB7DEB7CA1BDB0B0FB616
:102B9000F894DEBF0FBECDBF09942A8839884888D3
:102BA0005F846E847D848C849B84AA84B984C88469
:102BB000DF80EE80FD800C811B81AA81B981CE0F60
:102BC000D11D0FB6F894DEBF0FBECDBFED01089545
:042BD000F894FFCFA7
:102BD40000000000000000000001020203030303E0
:102BE4000404040404040404050505050505050599
:102BF4000505050505050505060606060606060679
:102C04000606060606060606060606060606060660
:102C14000606060606060606070707070707070748
:102C24000707070707070707070707070707070730
:102C34000707070707070707070707070707070720
:102C44000707070707070707070707070707070710
:102C540007070707070707070808080808080808F8
:102C640008080808080808080808080808080808E0
:102C740008080808080808080808080808080808D0
:102C840008080808080808080808080808080808C0
:102C940008080808080808080808080808080808B0
:102CA40008080808080808080808080808080808A0
:102CB4000808080808080808080808080808080890
:102CC4000808080808080808080808080808080880
:082CD4000808080808080808B8
:040000030000257064
:00000001FF
